:020000044001B9
:100000006F0000030000000000000000000000007E
:1000100000000000000000000000000000000000E0
:1000200022D5100B0000000000000000902E000000
:100030006F0000150000000000000000000000003C
:100040003C0201403C0201403C0201403C020140B4
:100050003C0201403C0201403C0201403C020140A4
:100060003C0201403C0201403C0201403C02014094
:100070003C0201403C0201403C0201403C02014084
:100080003C0201403C0201403C0201403C02014074
:100090003C0201403C0201403C0201403C02014064
:1000A0003C0201403C0201403C0201403C02014054
:1000B0003C0201403C0201403C0201403C02014044
:1000C0003C0201403C0201403C0201403C02014034
:1000D0003C0201403C0201403C0201403C02014024
:1000E0003C0201403C0201403C0201403C02014014
:1000F0003C0201403C0201403C0201403C02014004
:100100003C0201403C0201403C0201403C020140F3
:100110003C0201403C0201403C0201403C020140E3
:100120003C0201403C0201403C0201403C020140D3
:100130003C0201403C0201403C0201403C020140C3
:100140003C0201403C0201403C0201403C020140B3
:100150003C0201403C0201403C0201403C020140A3
:10016000FE2701403C0201403C0201403C020140AC
:100170003C0201403C020140000000000000000081
:100180001781FF2F130101E89701FF2F93818167EA
:10019000970200009382C20A93E2320073905230B9
:1001A00097020000938202EA739072309702000077
:1001B000938202097390027C9702FF2F938282E45C
:1001C00017330000130343C79703FF2F938343E9BB
:1001D000638A7200032E030023A0C201110391025F
:1001E000E3CA72FE9382C1851703FF2F130303FC3A
:1001F00023A002009102E3CD62FE01458145EF207C
:10020000E06C01A000000000000000000000000001
:1002100000000000000000000000000000000000DE
:1002200000000000000000000000000000000000CE
:1002300000000000000000000000000001A001001C
:100240001300000013000000130000001300000062
:100250001300000013000000130000001300000052
:100260001300000013000000130000001300000042
:1002700013000000130000001300000083A7818515
:100280004111328806C6AA882E87C8473686630D74
:100290000800B7370140938707DAB7350140C686B3
:1002A000938505DB15288524B73701409387C7D987
:1002B0003E88E5B74111B286014606C6C13739719D
:1002C00036D6741006CE3AD83EDA42DC46DE36C662
:1002D000F929F2402161828039713EDA32D42E86CA
:1002E000AA8503A5818536D6341006CE3AD842DCDD
:1002F00046DE36C66D29F240216182801C51011113
:1003000022CC26CA4AC806CE4EC60045AA842E89EB
:1003100099E3EF0070598357C400A18B99C31C481F
:10032000BDE3A2852685292A39CD7D55F240624458
:10033000D2444249B2490561828063D80700184C13
:1003400063CDE702938765FF8DCB1C4013871700B1
:1003500018C02380B70005091C4483450900FD1718
:100360001CC4E1FD63D307022286A9452685152812
:10037000FD57E30CF5FA294555BF22862685152041
:10038000E31B35FD5DB7FD59C1BF1C401387170046
:1003900018C029472380E700F9BFAA8503A58185F6
:1003A000B1BF011122CC26CA4EC606CE4AC8AA84C5
:1003B000AE89328409C51C5199E3EF00F04E1C4C04
:1003C0001CC48357C400A18B99C31C4891EFA2851C
:1003D0002685BD2011C97D59F2406244D244B249FC
:1003E0004A854249056182801C4808401D8D5C4851
:1003F0006347F500A2852685EF00302A69FD1C447D
:10040000050513F9F90FFD171CC41C4013871700CD
:1004100018C0238037015C486389A7008357C40054
:10042000858BDDDB930769FFC5FBA2852685EF0081
:10043000D0265DD14DB72E86AA8503A5818595B7B7
:10044000411126C2AA8403A5818522C406C62E8432
:1004500009C51C5199E3EF0030458317C40013F719
:10046000870029E713F7070109EB254798C093E7B1
:1004700007042316F4007D5585A813F747001DC314
:100480004C5889C9930744046384F500268561208C
:10049000232A04028357C40018482322040093F738
:1004A000B7FD18C093E787002316F4001C4881EFBE
:1004B0005C441307002093F707286386E700A285B2
:1004C0002685EF0010798317C40013F7170015C3B2
:1004D0005848232404003307E04018CC184801454D
:1004E00001E713F7070841F7B24022449244410163
:1004F000828013F72700814611E3544814C4F9BFE2
:1005000003A5818582804111194506C6EF10401C64
:100510000545EF202048D1CD83A7C5FF011122CC8E
:1005200006CE1384C5FF63D307003E942AC6FD227E
:1005300083A70186324589EB2322040023A081860C
:100540006244F2400561E1AA637DF4001040B30605
:10055000C4006396D7009443DC43B29614C05CC0D9
:10056000F1BF3E87DC4399C3E37DF4FE14433306B9
:10057000D700631F86001040B29614C33306D7001D
:10058000E390C7FC9043DC43B29614C35CC34DBFF9
:100590006375C400B1471CC165B71040B306C40001
:1005A0006396D7009443DC43B29614C05CC040C34A
:1005B00041BF8280411122C483A7C18526C24AC09F
:1005C00006C62A89AE8491E78145EF10E02323AE69
:1005D000A184A6854A85EF102023FD54631A950057
:1005E0007D54B240228522449244024941018280D6
:1005F000130435007198E30685FEB305A4404A85CF
:10060000EF108020E31F95FCE1BF011126CA9384FF
:100610003500F198A104B1474AC806CE22CC4EC697
:1006200052C4B3F4F40A2A8963C4040063FDB4001D
:100630002320F9000145F2406244D2444249B249C4
:10064000224A05618280D92883A701863E8421E859
:10065000A6854A858537FD572A84631FF50A03A4BA
:100660000186A287D1EB5DC0032A040081454A853B
:10067000229AEF106019631BAA081C404A859D8CC2
:10068000A6850D3FFD576303F5081C40A6971CC0C7
:1006900083A70186D84325E723A0018615A014402F
:1006A000858E63C806042D47637DD70204C03307D7
:1006B00094006396870223A0E1865C4014C35CC368
:1006C0004A85B1281305B4009307440061993307A4
:1006D000F540E302F5F63A94898F1CC0A9BFD8C350
:1006E000E9BF58406395870023A0E186D1BFD8C3F6
:1006F000C1BFA2874040A1BF3E84DC43A5B73E876F
:10070000DC43E39E87FE232207005DBFB147232021
:10071000F9004A85292039BF04C15DB782808280F3
:100720001C46FD171CC663D90700184E63C5E700B9
:10073000938765FF91E3B5B11C422E85138717009F
:1007400018C22380B7008280011122CC26CA4AC871
:100750004EC652C406CEAA892E8A3284B304D6006D
:100760007D5963149400014509A88345040052860D
:100770004E857D370504E31625FFF2406244D244DE
:100780004249B249224A056182801C46411122C475
:1007900006C6328499CBEF00F01423240400B24043
:1007A000232204002244410182800145CDBF7171A2
:1007B00022D526D34ECF52CD06D74AD156CB5AC9D1
:1007C0005EC762C5AA89AE843284368A09C51C51C7
:1007D00099E3EF00700D83D7C400A18BF1C79C484B
:1007E000E1C793070002A30CF102B73A0140930757
:1007F000000352CE02DA230DF1027D5A938A0ADEFB
:10080000294BA28B83C70B00333CF0009387B7FDC5
:10081000B337F000337CFC0063190C0AB3868B40BD
:10082000638D8B002286A6854E8536C6313F6309CF
:10083000451BD257B246B6973EDA83C70B00638199
:10084000071A13841B0002D002D652D202D4A3018D
:10085000010682DC8345040015465685EF00F05200
:1008600082579306140025E513F7070109C71307FC
:100870000002A301E10613F7870009C71307B002BE
:10088000A301E106034604001307A0026308E6047F
:10089000B2578146254603470400130707FD6375D9
:1008A000E608B1C63ED6A1A0A6854E85513E15D913
:1008B0007D55BA502A549A540A59FA496A4ADA4A72
:1008C0004A4BBA4B2A4C4D618280850B25BF3305BC
:1008D0005541B397A7283ED03684ADBF7247130663
:1008E0004700184332CE634A07023AD6368403479C
:1008F00004009307E002631BF70403471400930707
:10090000A0026319F702F2470904138747009C43CA
:100910003ACEB3E7470B3ED215A83307E04093E742
:1009200027003AD63ED0D9B7B3876703050485467A
:10093000BA9795B7050402D28147A546034704003C
:10094000130707FD63F5E606E3170CFC8345040077
:10095000B73B01400D4613858BDEEF00104309CDF8
:100960008257938B8BDE33057541130700043317D1
:10097000A700D98F05043ED08345040037350140D8
:1009800019461305C5DE230CB102EF0010402DC13E
:10099000930700009DE70257F2471377071011CF26
:1009A00091073ECED2570504CA973EDA99BDB38768
:1009B00067030504054CBA9751B79D07E19BA10752
:1009C000CDB7B706014078089386867426860C104A
:1009D0004E8597000000E70000002A89E31445FDDA
:1009E00083D7C40093F70704E39407EC5255D1B5BD
:1009F000B706014078089386867426860C104E85CB
:100A0000212AE1BFB2862E86AA8503A5818545B33A
:100A100079714ECE9C49BA89984522D44AD05AC899
:100A20005EC606D626D252CC56CAB3E7E70A1CC227
:100A300003C735042A8B2E843289B68B19C38507E8
:100A40001CC21C4093F7070291C78327090089073E
:100A50002320F9000440998891E8130A9401FD5A73
:100A60005C4403270900998F63CBF4041C40834640
:100A7000340493F70702B336D000BDE713063404FD
:100A8000DE855A858299FD576302F5041C401147A3
:100A90008144998B6398E7004444832709009D8C27
:100AA000B3E4040A1C4418486354F700998FBE94B9
:100AB000014969047D5A63982405014509A88546C2
:100AC0005286DE855A858299631E55017D55B25046
:100AD000225492540259F249624AD24A424BB24BD2
:100AE000456182808504ADBF3307D400130600033F
:100AF000A301C7040347540493871600A2978906ED
:100B0000A381E704A5BF85462286DE855A858299A2
:100B1000E30E45FB050945B7397122DC26DA52D4CC
:100B200056D206DE4AD84ED683C78501B6849306D0
:100B300080072A8A2E84B28A63EEF6009306200686
:100B40001386350463EBF600638D071A9306800560
:100B50006389D716130924043DA09386D7F993F629
:100B6000F60FD545E3E8D5FEB73501409385459DA1
:100B7000B3C6B620944282861C431309240493868C
:100B800047009C4314C32301F404854779AA1C4001
:100B9000084393F60708930545008DC21C410CC31A
:100BA000B736014063D807001307D002B307F040FF
:100BB000A301E404938646DF294799A093F607042E
:100BC0001C410CC3F1DE93975760D9BF0C4014430E
:100BD00013F505089C42910611E593F5050499C1AA
:100BE000B3C7070814C383458401B7360140130710
:100BF000F006938646DF6390E50E2147A3010404C7
:100C00004C400CC463C805000840DD8D32896D99E5
:100C100008C099CD3289B3F5E7027D19B69583C531
:100C200005002300B900BE85B3D7E702E3F5E5FE72
:100C3000A147631EF7001C40858B91CB58401C4890
:100C400063C7E70093070003A30FF9FE7D1933067E
:100C5000264110C82687D6867008A28552854D3B4E
:100C6000FD596318350D7D55F2506254D2544259E6
:100C7000B259225A925A216182801C4093E707029E
:100C80001CC0B736014093078007938686E0A30215
:100C9000F4040C40084313F805081C4111056318BF
:100CA000080013F8050463040800B3C7070808C365
:100CB00013F7150001C793E505020CC081CB41472E
:100CC00035BFB7360140938646DFD1B7184013775A
:100CD000F7FD18C0EDB7294715B714401C434C4821
:100CE00013F80608138547006306080008C39C43F1
:100CF0008CC301A808C393F606049C43F5DA23903D
:100D0000B700232804003289B1B71C435040814505
:100D10009386470014C303A907004A85EF00F00635
:100D200001C53305254148C05C401CC8A30104042B
:100D300015B714484A86D68552858294E30535F363
:100D40001C40898B8DE74844F2473365F50A29BF7B
:100D50008546D685528532C68294E30635F1324601
:100D600005095C447247998FE344F9FEE9BF0149E4
:100D700013069401FDB78397C500011122CC26CA42
:100D800006CE4AC813F78700AA842E8461E3D841AF
:100D90006345E000B8416359E00A585455C703A9B8
:100DA00004009396370123A0040063DD0606704813
:100DB0008357C400918B99C75C401D8E5C5899C3C2
:100DC0003C401D8E5C540C508146268582977D5791
:100DD0008317C400631CE500944075476360D70A1D
:100DE0003707402005073356D74849CA18482322F9
:100DF000040018C01397370163580700FD576314A8
:100E0000F5009C4091E368C84C5823A024018DCD87
:100E1000930744046385F5002685EFF0CFEF232A7E
:100E200004021DA00C500146854626850297FD57F9
:100E30002A86E31FF5F69C40A5DF138737FE19C30A
:100E4000A9179DEB23A02401014535A890496DDE2B
:100E500094418D8B90C13389C640014791E3D849B5
:100E600018C4E35320FF1C540C50CA86268532C692
:100E700082973246634FA0008357C40093E707046C
:100E80002316F4007D55F2406244D2444249056184
:100E900082802A963309A940E9B79C4985CB011184
:100EA00022CC06CE2A8411C51C5181E72EC6ED2A1C
:100EB000B2458397C50091C722856244F24005611F
:100EC0005DBDF2406244014505618280014582803A
:100ED000AA8501EDB7150140370500701386C1845E
:100EE0009385A5E91305050055A903A5818575B767
:100EF00001458280411122C406C62A842316B5000A
:100F00002317C50023200500232205002324050004
:100F10002322050623280500232A0500232C05008B
:100F2000214681451305C505EF003016B71701406E
:100F30009387274D5CD0B7170140938747501CD447
:100F4000B7170140938707555CD4B71701409387C3
:100F50004758B24000D01CD8224441018280B715C6
:100F60000140370500701386C1849385A5E91305F8
:100F700005002DA141114C4122C426C206C613848E
:100F80000187AA8463838500093F8C449307840604
:100F90006384F50026851137CC441304040D63885F
:100FA00085002244B240268592444101FDB5B240FD
:100FB0002244924441018280411122C4138401875A
:100FC000B71701409387E7F522850146914506C68C
:100FD00023A2F1860537130584060546A545193F6A
:100FE0001305040D2244B2400946C945410119B711
:100FF0000145828083A7418641114AC006C622C4AA
:1010000026C22A8991E34D3F9384C1848044DC4009
:10101000FD1763D10702804051E49305C01A4A8549
:10102000EFF0AFDE2A843DE123A00400B147232086
:10103000F90099A00317C40039E7C1778507232277
:1010400004062320040023220400232404005CC49B
:1010500023280400232A0400232C04002146814570
:101060001305C405EF007002232A0402232C040296
:101070002324040423260404B240228522449244FB
:101080000249410182801304840659B79147232005
:1010900005005CC1310508C41306001A8145EF0044
:1010A000C07E80C0A2849DB71C5191EBB717014050
:1010B000938747F71CD183A7418691E3F5BD8280D2
:1010C00082808280B71501401386C184938505EF25
:1010D0000145E9A4B71501401386C184938505FF36
:1010E00001456DAC1C4695E3014582800145B25037
:1010F000225492540259F249624AD24A424BB24BAC
:10110000224C924C024D4561828083D7C500797193
:1011100022D44AD056CA06D626D24ECE52CC5AC86F
:101120005EC662C466C26AC0A18BB28A2E842A8956
:10113000D9C79C49C9C78317C40003AA0A0013F77B
:10114000270055EF858B638C0712814B0145814940
:10115000014B63070B2019E95A86A9454E853521B5
:10116000930B1B0001C50505B30B354154480444DE
:1011700008401C4833DC6B0BB69463FAA71E63D897
:10118000841FCE852686EF00E06D1C40A2854A852F
:10119000A6971CC0193369EDB38B9B400545639638
:1011A0000B00A2854A85D53961E583A78A00858F22
:1011B00023A4FA0085DFA699330B9B4059BFA28573
:1011C0004A85EFF0EFA725D97D5515B783290A0089
:1011D00083244A00210AFDD81C540C50B3D6640B5A
:1011E0004E864A8582976355A00883A78A00898F17
:1011F00023A4FA00E38C07EEAA99898CE9BF370B88
:10120000008081498144130B0BC0F1B7032B0A0006
:1012100083244A00210AFDD88317C400032D8400CB
:10122000084013F707206306070EEA8C63EFA40D4E
:1012300013F7074869CF832944010C48B3A9392122
:10124000B3C98903B30CB54013871C0026974E869B
:1012500063F4E900BA893A8693F70740C1CBB285B7
:101260004A85EFF08FBA2A8D15E1B1472320F900A6
:101270008357C40093E707042316F400B1B7B70BF4
:101280000080014B8144FD1B094C71B70C486686F8
:1012900029258357C40093F7F7B793E70708231668
:1012A000F4002328A401232A3401669DB3899941BF
:1012B0002320A40123243401268DA689A68C08406E
:1012C0006686DA8545231C44B387A7411CC41C40AD
:1012D000E6971CC083A78A00B387374123A4FA008E
:1012E000E38607E04E9BB384344135B74A85C92372
:1012F0002A8D45F90C484A85EFF0EFA18357C400C9
:1013000093F7F7F72316F4008DB7268D7DB7A689DE
:101310007DB71C4863E5A7005C4863F4F402B35949
:101320009D0A4E86DA853D2B1C441840B387374111
:101330004E971CC418C0D9FFA2854A85B93E59D919
:1013400005BFB3D6740BB3C6F60218540C505A86B8
:101350004A85B386F6020297AA89E34DA0F609BF33
:1013600083290A00032B4A000145210ADDB3634BA0
:10137000DC001C540C504E864A858297AA84E34DAB
:10138000A0E0FDB56286CE85F1291C44E284B387D6
:1013900087411CC41C40E2971CC0FDBB797122D45C
:1013A0004AD04ECE52CC56CA06D626D22A8AAE8A09
:1013B00001440549FD590C464442FD1463DE040016
:1013C000104275FAB2502285225492540259F249C1
:1013D000624AD24A4561828083D7C500637DF900A5
:1013E0008397E50063893701528532C62EC4829AFD
:1013F0003246A245498C93858506C1B71971A2DC96
:101400002E848395E500A6DA86DEB28463D10502D8
:101410008357C40093F707088DEB13070040F6507D
:1014200066549CC298C00145D65409618280300838
:1014300036C6ED24B246E34D05FCF2473D67F98F11
:101440007977BA9793B71700C9BF8147130700048C
:10145000F9B703D7C500797122D406D626D2098BF5
:101460002E8401CF930774041CC01CC885475CC838
:10147000B250225492544561828074083008AA8484
:10148000B53FE24526852EC6EFF02F988317C4009E
:10149000B24511E913F7072061FFF19B93E727009D
:1014A0002316F400C1B793E707082316F400F247A8
:1014B00008C008C84CC8CDDF8315E4002685712418
:1014C00045D98357C400F19B93E717002316F40016
:1014D00045B7411122C42E848395E50006C6E12458
:1014E000634905007C48AA977CC8B2402244410168
:1014F00082808357C4009397C7482316F400F5B73A
:101500000145828083D7C500011122CC26CA4AC872
:101510004EC606CE93F70710AA842E843289B68968
:1015200091C78395E50089460146B1248357C400DD
:101530008315E400F2409397C7482316F4006244F1
:10154000CE864A86B24942492685D2440561DDA449
:10155000411122C42E848395E50006C6292C7D57AF
:101560008317C400631AE5009397C7482316F40055
:10157000B2402244410182809397C7282316F40089
:1015800068C8FDB78395E500A5A293F5F50F2A96E7
:101590006314C5000145828083470500E38DB7FED3
:1015A0000505FDB7585D05EB01119305000806CE52
:1015B0002AC6EFF08F85B247C8DFFD5709C99307E8
:1015C0000508232005001105E31DF5FE8147F240C3
:1015D0003E850561828081473E8582807D476376B6
:1015E000B700594718C17D558280585D19CF5C5DA1
:1015F000B3C5F520884190C18280DC5FB3C5F5207A
:10160000884190C1F24005618280011132C62EC42A
:1016100006CE2AC2413F9247A245324679DD7D552A
:10162000D5B7FD4763F6B700D9471CC17D55828009
:101630005C5D011122CC06CE2E862A8489C7B3C7F1
:10164000F520984319EB228532C66D2AAA8522859A
:1016500062443246F2400561BDAA0545630FA7000A
:10166000FD566318D700D9471CC0F240624405619B
:10167000828023A007002E8502970145FDB7FD4714
:1016800063F4B7007D5582805C5D411122C426C29F
:1016900006C6AA842E848DC7D85C05453347E4204E
:1016A0001C4395C3FD560945638FD70085460D45FC
:1016B000638BD7002285232007008297014521A054
:1016C000D53579D97D55B24022449244410182807A
:1016D000AA8503A58185B1B72E86AA8503A5818534
:1016E000F5BD03A581857DBDAA8503A5818541BF83
:1016F000411122C426C2AA842E8506C623A40186CF
:10170000EF10E01FFD576316F50083A7818691C394
:101710009CC0B2402244924441018280411122C4C3
:1017200026C2AA842E85B28506C623A40186EF10A0
:10173000401DFD576316F50083A7818691C39CC0A9
:10174000B2402244924441018280411122C426C207
:10175000AA842E8506C623A40186EF10001BFD5720
:101760006316F50083A7818691C39CC0B2402244D2
:10177000924441018280411122C426C2AA842E854E
:10178000B285368606C623A40186EF104018FD57A1
:101790006316F50083A7818691C39CC0B2402244A2
:1017A000924441018280411122C426C2AA842E851E
:1017B000B285368606C623A40186EF108015FD5734
:1017C0006316F50083A7818691C39CC0B240224472
:1017D000924441018280411122C426C2AA842E85EE
:1017E000B28506C623A40186EF10E01AFD576316E2
:1017F000F50083A7818691C39CC0B24022449244E5
:10180000410182806F10601A411122C426C2AA844D
:101810002E8506C623A40186EF10E015FD5763163A
:10182000F50083A7818691C39CC0B24022449244B4
:1018300041018280411122C426C2AA842E85B2852C
:10184000368606C623A40186EF10E00FFD57631607
:10185000F50083A7818691C39CC0B2402244924484
:101860004101828015C22A8385466367B500FD5613
:101870001307F6FF3A93BA9583830500230073009C
:101880007D163693B6956DFA82802A8311C62300A1
:10189000B3007D16050365FE82802A8309CA83830F
:1018A0000500230073007D16050385056DFA82800F
:1018B00081E5B2856FE07FD5011126CA52C406CEFC
:1018C00022CC4AC84EC6B2842A8A09EEEFE0BFC4D1
:1018D0000144F24022856244D2444249B249224A3C
:1018E000056182802E840D282A89636695009357AE
:1018F0001500E3E097FEA6855285EFE01FD1AA8987
:1019000019E14E84F9B7A28533D6240B7937A28525
:101910005285EFE05FC0F5B783A7C5FF1385C7FF0A
:1019200063D50700AA959C413E9582803287B68890
:101930002A882E83639F061AB73701409387C7A270
:1019400063F9C50AC166637CD6089336061093B660
:1019500016008E06335ED600F29783C70700B6974F
:1019600093060002638DD7009D8E3393D500B35745
:10197000F5003317D60033E367003318D50013554D
:101980000701B357A302B345070893560801337301
:10199000A3023386F5024203B3E6660063F8C6008D
:1019A000BA9663F4C60063F3E604FD17918E33D64E
:1019B000A60233480808B3F6A602B385C502C206DC
:1019C0003368D8006378B8003A986374B8006370DD
:1019D000E8127D16C207D18F3E85C6858280370EFC
:1019E0000001E146E378C6F7C146ADB7F917BA96EC
:1019F00075BF814609CAC166637DD6049336061059
:101A000093B616008E06B358D600C69783C7070054
:101A1000B697930600026395D7043386C540854880
:101A200013550701B357A602B3450708935608019B
:101A30003376A6023383F5024206D18E63F8660040
:101A4000BA9663F4660063F1E60AFD17B386664052
:101A5000B9BFB7080001E146E37716FBC14665B799
:101A60003388F64033170601B3D6F500B395050168
:101A7000B357F5003318050113550701B3D8A60273
:101A800033460708CD8FB3F6A602330316039395AA
:101A9000060193D60701CD8E63F86600BA9663F40B
:101AA000660063FDE602FD18B3866640B3D5A60264
:101AB000B3C70708B3F6A6023306B602C206D58F2F
:101AC00063F8C700BA9763F4C70063FCE700FD152D
:101AD000C2083386C740B3E8B80099B7F918BA9678
:101AE000E1B7F915BA97EDB7F917BA9685B7791630
:101AF000D5B563E6D512C16763FEF60293B706104B
:101B000093B717008E073737014033D8F600130715
:101B1000C7A2429703470700130800023E976312CB
:101B20000703B337C50093B71700B3B6B600D58F18
:101B300081485DB537070001E147E3F6E6FCC147A0
:101B4000D9B73308E840B358E600B3960601B3E8C6
:101B5000D80013DE0801B3D6E500B3D7C60333C3FC
:101B60000808B39505013357E5004D8F331606017C
:101B7000B3F6C603B30EF30293950601935607011D
:101B8000CD8E63F8D601C69663F4D60163F31609C9
:101B9000FD17B386D641B3D5C60333470708B3F65E
:101BA000C6033303B302C206558F637867004697B6
:101BB0006374670063721707FD15C207CD8F93D852
:101BC0000701B3C505083307674033430608418260
:101BD000338E65023383680293560E01B385C502C6
:101BE0009A95AE96B388C80263F466004166B298CF
:101BF00013D606014696636CC700C206334E0E0824
:101C000033150501F296E375D5F2E313C7F2FD171C
:101C100005B7F917C696B5BFF915469779BF81483C
:101C200081475DBBB70700149C4F1397470163586A
:101C30000700B717000D83C78712858B8DE3B707A1
:101C400000149C4763CF0700B7070014BC5B93F7F1
:101C5000070291CBB7070014A85B21898280214538
:101C600082800145828021458280B7070014DC43D1
:101C700013D747001377F70305073305A70213F7B8
:101C8000F70005073355E502A983BD8B850733555A
:101C9000F5028280411106C6B70700149C43858374
:101CA0008D8B0547638DE7000947638EE708DDE309
:101CB000953F4DE537857D011305058469A8B70774
:101CC000001488471375050259C59C43858B81EB29
:101CD000913F39E937857D011305058439A099378E
:101CE00029C937857D01130505844137B7070014DD
:101CF00098479377F701058B31C39356E501131786
:101D000025003345A5203337E50036979355F50177
:101D10008583B3C7F720139617003D068146060555
:101D2000B325B720213105A837353101130505D07A
:101D30006DBF37353101130505D045BF8583850754
:101D40003355F50209A8F93D19CD37857D011305F5
:101D5000058411A00145B24041018280373531012F
:101D6000130505D0CDBF37353101130505D0E5B7D3
:101D7000411106C6B70700149C438D838D8B054720
:101D8000638DE70009476383E70AC5EB613D55E9C9
:101D900037857D011305058455A0B70700148847D2
:101DA0009317B0287D8D59C9B70700149C43858BC4
:101DB00081EB8D3D29ED37857D011305058439A023
:101DC000953539C937857D0113050584793DB707F8
:101DD0000014984719839377F701058B39C39356FD
:101DE000E501131725003345A5203337E500369765
:101DF0009355F5018583B3C7F720139617003D0669
:101E000081460605B325B720EFF05FB205A8373548
:101E10003101130505D05DBF37353101130505D0FC
:101E200075B7858385073355F50209A8E53B19CDBC
:101E300037857D011305058411A00145B24041019C
:101E4000828037353101130505D0CDBF37353101DB
:101E5000130505D0E5B7411106C6B70700149C432A
:101E600095838D8B0547638DE70009476383E70AF8
:101E7000C5EB4D3B55E937857D011305058455A01C
:101E8000B70700148847B70702007D8D59C9B70707
:101E900000149C43858B81EB713329ED37857D01DF
:101EA0001305058439A0BD3B39C937857D0113056C
:101EB0000584653BB7070014984731839377F70192
:101EC000058B39C39356E501131725003345A5202B
:101ED0003337E50036979355F5018583B3C7F7206F
:101EE000139617003D0681460605B325B720EFF08F
:101EF000FFA305A837353101130505D05DBF373580
:101F00003101130505D075B7858385073355F50273
:101F100009A8093B19CD37857D011305058411A05A
:101F20000145B2404101828037353101130505D0AA
:101F3000CDBF37353101130505D0E5B7411106C6D0
:101F4000B70700149C439D838D8B0547638DE70085
:101F500009476383E70AC5EBF13155E937857D0110
:101F60001305058455A0B70700148847B7078000FC
:101F70007D8D59C9B70700149C43858B81EB5D317A
:101F800029ED37857D011305058439A0613939C9EB
:101F900037857D0113050584C939B70700149847B3
:101FA00049839377F701058B39C39356E5011317DE
:101FB00025003345A5203337E50036979355F501C5
:101FC0008583B3C7F720139617003D0681460605A3
:101FD000B325B720EFF09F9505A8373531011305DC
:101FE00005D05DBF37353101130505D075B7858341
:101FF00085073355F50209A8353119CD37857D019F
:102000001305058411A00145B24041018280373596
:102010003101130505D0CDBF37353101130505D08A
:10202000E5B7411106C6B70700149C43A5838D8B05
:102030000547638DE70009476383E70ACDEBDD368B
:102040005DE937857D01130505845DA0B7070014A0
:102050008847B70700207D8D41CDB70700149C430A
:10206000858B81EBC13629ED37857D01130505840C
:1020700039A04D3E39C937857D0113050584F536F4
:10208000B7070014984761839377F701058B39C32D
:102090009356E501131725003345A5203337E50096
:1020A00036979355F5018583B3C7F720139617002C
:1020B0003D0681460605B325B720EFF03F870DA802
:1020C00037353101130505D05DBF373531011305B3
:1020D00005D075B7858385073355F50211A8EFF054
:1020E0007FB419CD37857D011305058411A0014505
:1020F000B2404101828037353101130505D0CDBF93
:1021000037353101130505D0E5B7411106C6B707CC
:1021100000149C43AD838D8B0547638EE700094710
:102120006385E70ADDEBEFF0FFAF45ED37857D0115
:102130001305058465A0B707001403A547081375A8
:10214000050249CD9C43858B89EBEFF0BFAD39ED9E
:1021500037857D011305058401A8EFF0BFAC21CDC3
:1021600037857D0113050584EFF03FB0B7070014F4
:1021700003A747089377F701058B39C39356E50109
:10218000131725003345A5203337E50036979355BF
:10219000F5018583B3C7F720139617003D068146E6
:1021A0000605B325B720EFF06FF80DA837353101DC
:1021B000130505D055BF37353101130505D06DB76F
:1021C000858385073355F50211A8EFF0BFA519CD1A
:1021D00037857D011305058411A00145B2404101F9
:1021E000828037353101130505D0CDBF3735310138
:1021F000130505D0E5B7411106C6B70700149C4387
:10220000B5838D8B0547638EE70009476389E70A2D
:10221000DDEFEFF03FA161E137857D011305058416
:1022200045A8B707001403A547089317B0287D8D6C
:1022300045C1B70700149C43858B89EBEFF09F9E47
:1022400025E137857D011305058401A8EFF09F9DE9
:1022500029CD37857D0113050584EFF01FA1B70750
:10226000001403A7470819839377F701058B39C337
:102270009356E501131725003345A5203337E500B4
:1022800036979355F5018583B3C7F720139617004A
:102290003D0681460605B325B720EFF02FE90DA8CE
:1022A00037353101130505D04DBF373531011305E1
:1022B00005D065B7858385073355F50211A8EFF082
:1022C0007F9619CD37857D011305058411A0014541
:1022D000B2404101828037353101130505D0CDBFB1
:1022E00037353101130505D0E5B7411106C622C4C3
:1022F0002A84EFF03F9A08C0EFF09FA748C0EFF0A4
:102300009FB508C4253948C4293B08C8FD3B48C8C7
:10231000DD3508CCB240224441018280B3D5C502EC
:1023200093D7450013F7F5002320E50C58451367B4
:10233000070858C593F7F70F1CC1B18193F5F50F46
:102340004CC15C4593F7F7F75CC58280B7F7FFEEA9
:10235000AA97B337F00037E7FFEE2A973337E0004C
:10236000F98F9DCF37D7FFEE2A97B7F7FFECAA97E3
:10237000B337F00015C78DC737E7FFEC2A97B7D7FB
:10238000FFECAA97B337F00001CF99CB3777FFEB7B
:102390002A97B767FFEBAA97B337F00011C389EF0D
:1023A0008327850893E777002324F5087C5D858BD8
:1023B000F5FF1C4D01458280411106C697060000BD
:1023C0009386067717160000130646A69305F003BA
:1023D0001705000013058577EFD05FEA797106D6FF
:1023E00022D426D24AD0AA842E89B7F7FFEEAA9724
:1023F000B337F00037E7FFEE2A973337E000F98F65
:10240000A1C337D7FFEE2A97B7F7FFECAA97B337E8
:10241000F0001DC795C737E7FFEC2A97B7D7FFEC49
:10242000AA97B337F00009CF81CF3777FFEB2A9710
:10243000B767FFEBAA97B337F00019C3639807108B
:10244000032709007D17B7E716009387F73563EF79
:10245000E710032749008D4763EAE71283278900C5
:102460003337F000F117B337F000F98F639007149A
:102470008326C900B337D000138786FF3337E000C7
:10248000F98F81C7E1476393F61403270901894750
:1024900063EEE71403274901854763E9E7168326BE
:1024A0008901B337D000138706FF3337E000F98F77
:1024B00089CB930700026386F600930700036397B6
:1024C000F6168326C901B337D000138706FC3337CD
:1024D000E000F98F89CB930700086386F600930725
:1024E000000C6395F61603270902854763E0E71899
:1024F00003274902854763EBE718E05C058875FC14
:102500004800E533B7F7FFEEA69793B7170037E714
:10251000FFEE269713371700D98F63990718B7373F
:1025200000116385F418B7F7FFECA69793B717006F
:1025300037E7FFEC269713371700D98F639A071EEA
:10254000B73700136386F41EC24595A297060000B4
:102550009386065E171600001306868C9305B00559
:10256000170500001305855EEFD05FD197060000C8
:1025700093864662171600001306868A9305C005E7
:10258000170500001305855CEFD05FCF97060000AC
:102590009386066317160000130686889305D005F8
:1025A000170500001305855AEFD05FCD9706000090
:1025B0009386066417160000130686869305E005C9
:1025C0001705000013058558EFD05FCB9706000074
:1025D0009386C66417160000130686849305F005DB
:1025E0001705000013058556EFD05FC99706000058
:1025F000938646651716000013068682930500062B
:102600001705000013058554EFD05FC7970600003B
:1026100093868666171600001306868093051006BB
:102620001705000013058552EFD05FC5970600001F
:1026300093868667170600001306867E930520069C
:102640001705000013058550EFD05FC39706000003
:1026500093864669170600001306867C93053006AC
:10266000170500001305854EEFD05FC197060000E7
:102670009386066B170600001306867A93054006BC
:10268000170500001305854CEFD05FBF97060000CB
:102690009386466C1706000013068678930550064D
:1026A000170500001305854AEFD05FBDA245DDC1C7
:1026B0008327090289C79C4893E707049CC883279E
:1026C000490289C79C4893E707019CC80326090073
:1026D0002685A931DC44819B0327C9008326890014
:1026E000558F83264900558FD98FDCC48327090174
:1026F00005476381E70409476386E70423A6040CC2
:102700008327490189CF9C4493F7E7F00327C90148
:1027100083268901558FD98F93E777009CC4C147E1
:10272000DCC02285B2502254925402594561828005
:10273000B245B5BF83A7C40CC19B93E7370023A65E
:10274000F40C7DBF83A7C40CC19B93E7970023A61D
:10275000F40C7DB70544F1B78967938707581CC10E
:102760008D475CC12324050023260500232805008E
:10277000232A0500232C0500232E05002320050213
:10278000232205028280397106DE22DCB70700149D
:10279000D85FB70600F9FD16758F13178729D8DFA4
:1027A000D85FB7060090FD16758F1317C729D8DFBD
:1027B00037150011EFF09FB920002285713FF167B6
:1027C000938707203EC48D473EC602C802CA02CC8A
:1027D00002CEA28537150011EFF05FC0F2506254AF
:1027E00021618280B7170011DC4B93F70702FDDBF4
:1027F0001377F50FB717001198C382808280357167
:1028000006CF16CDF322300016CB1AC91EC72AC533
:102810002EC332C1B6DEBADCBEDAC2D8C6D6F2D416
:10282000F6D2FAD0FECE82E686E48AE28EE012FE8E
:1028300016FC1AFA1EF82AF62EF432F236F03AEEA8
:102840003EEC42EA46E872E676E47AE27EE07D37E4
:10285000FA40DA4273903200EA424A43BA432A45C8
:102860009A450A46F6566657D6574658B658265ED3
:10287000965E065FF64F3660A660166186617272DC
:10288000E2725273C2733275A275127682767267E3
:10289000E2675268C268326EA26E126F826F0D617B
:1028A000730020309302803E19C97D15732310C038
:1028B000F32310C0B3836340E3EC53FEF5B782808B
:1028C000411106C60537B24041018280411106C65A
:1028D000B70600149C42378700FF7D17F98F939746
:1028E0002729939737299CC2793D170500001305C6
:1028F000E549EFD09FAA1305803E6D37FDB77D55A2
:1029000082808967DCC1014582800545828001455E
:102910008280411106C622C426C24AC02E84328952
:10292000814409A897000000E70000002300A400EC
:1029300085040504E3E824FF4A85B240224492441A
:10294000024941018280411106C622C426C24AC002
:102950003289014401A89384150003C505008D3711
:102960000504A685E36924FF4A85B24022449244C7
:10297000024941018280AA8703A7C18619C713872C
:10298000C1860843AA971CC382801387819A23A615
:10299000E186F5B701A0411106C6EFD07FB6D94751
:0E29A0001CC17D55B2404101828005458280F8
:1029B000040000001400000003000000474E550012
:1029C00085F345C4AC93730DB16779C380AE966B44
:0429D0005A9677C5D7
:1029D400780B01408E0B0140540B0140540B014015
:1029E400540B0140540B01408E0B0140540B014029
:1029F400540B0140540B0140540B0140DA0C0140CC
:102A0400CC0B01407A0C0140540B0140540B0140A3
:102A14000A0D0140540B0140CC0B0140540B014002
:102A2400540B0140820C0140000102020303030322
:102A3400040404040404040405050505050505054A
:102A4400050505050505050506060606060606062A
:102A54000606060606060606060606060606060612
:102A640006060606060606060707070707070707FA
:102A740007070707070707070707070707070707E2
:102A840007070707070707070707070707070707D2
:102A940007070707070707070707070707070707C2
:102AA40007070707070707070808080808080808AA
:102AB4000808080808080808080808080808080892
:102AC4000808080808080808080808080808080882
:102AD4000808080808080808080808080808080872
:102AE4000808080808080808080808080808080862
:102AF4000808080808080808080808080808080852
:102B04000808080808080808080808080808080841
:102B14000808080808080808080808080808080831
:102B2400080808080808080849535F554152545FCB
:102B3400414C4C5F494E5354414E434528554152F4
:102B440054782900433A2F4D43552F5531303030B6
:102B54002F6D63752D73646B2D77696E646F777356
:102B64005F322E332E305F32303236303730332FEF
:102B7400447269766572732F48414C2F5372632FE8
:102B8400626D63755F756172742E630049535F559E
:102B94004152545F42415544524154452855415293
:102BA400545F496E69745374727563742D3E426147
:102BB400756452617465290049535F554152545FED
:102BC40044415441574944544828554152545F495B
:102BD4006E69745374727563742D3E4461746157E5
:102BE400696474682900000049535F554152545F79
:102BF40053544F504249545328554152545F496EDF
:102C040069745374727563742D3E53746F704269A2
:102C14007473290049535F554152545F50415249DE
:102C2400545928554152545F496E697453747275EE
:102C340063742D3E506172697479290049535F555C
:102C44004152545F5452414E534645525F394228D3
:102C5400554152545F496E69745374727563742D8F
:102C64003E5472616E736665723962290000000019
:102C740049535F46554E4354494F4E414C5F53545C
:102C840041544528554152545F496E6974537472D6
:102C94007563742D3E4374726C4649464F29000097
:102CA40049535F554152545F54585F4649464F5FFC
:102CB4005448524553484F4C4428554152545F4957
:102CC4006E69745374727563742D3E547846494624
:102CD4004F5468726573686F6C64290049535F557B
:102CE4004152545F52585F4649464F5F54485245DB
:102CF40053484F4C4428554152545F496E697453AC
:102D040074727563742D3E52784649464F54687206
:102D14006573686F6C64290049535F46554E43548C
:102D2400494F4E414C5F53544154452855415254E8
:102D34005F496E69745374727563742D3E43747283
:102D44006C497264614D6F646529000049535F46A4
:102D5400554E4354494F4E414C5F535441544528BA
:102D6400554152545F496E69745374727563742D7E
:102D74003E4374726C4C6F6F706261636B4D6F6431
:102D84006529000055415254207072696E746620A2
:102D94006578616D706C650D000000002C2066750F
:102DA4006E6374696F6E3A2000000000617373658E
:102DB4007274696F6E2022257322206661696C65C6
:102DC400643A2066696C6520222573222C206C6984
:102DD4006E65202564257325730A0000232D302B8E
:102DE40020000000686C4C0065666745464700009B
:102DF400303132333435363738394142434445462D
:102E040000000000303132333435363738396162EE
:102E14006364656600000000554152545F496E6961
:102E240074000000554152545F4465496E69740052
:102E34000000000070000070D800007040010070B5
:102E4400000000000000000000000000000000007E
:102E5400000000000000000000000000000000006E
:102E6400000000000000000000000000000000005E
:102E7400000000000000000000000000000000004E
:0C2E8400030000007000007000000070EF
:040000054001003086
:00000001FF
